:020000040800F2
:10000000880E0020ED010008012400089923000853
:10001000FD230008C9160008492D00080000000053
:10002000000000000000000000000000F9250008AA
:10003000D319000800000000A92400080D270008BB
:10004000070200080702000807020008070200086C
:10005000070200080702000807020008070200085C
:10006000070200080702000807020008070200084C
:10007000070200080702000807020008070200083C
:10008000070200080702000807020008070200082C
:10009000070200080702000807020008070200081C
:1000A000070200080702000807020008070200080C
:1000B00007020008070200080702000807020008FC
:1000C00007020008070200080702000807020008EC
:1000D0000702000871270008D927000885280008B2
:1000E00007020008070200080702000800F002F8F3
:1000F00000F06DF80AA090E8000C82448344AAF155
:100100000107DA4501D100F062F8AFF2090EBAE852
:100110000F0013F0010F18BFFB1A43F0010318473B
:1001200020410000404100000A444FF0000C10F84C
:10013000013B13F0070408BF10F8014B1D1108BF65
:1001400010F8015B641E05D010F8016B641E01F805
:10015000016BF9D113F0080F1EBF10F8014BAD1C55
:100160000C1B09D16D1E58BF01F801CBFAD505E073
:1001700014F8016B01F8016B6D1EF9D59142D6D3CD
:10018000704700000023002400250026103A28BFF5
:1001900078C1FBD8520728BF30C148BF0B607047F9
:1001A000662904F00080642900F0B280732900F011
:1001B0008684002070471FB500F098FC04000020E2
:1001C000002103F089F9E0601FBD10B510BD00F0FB
:1001D0008DFD1146FFF7EFFF02F020FF00F0ABFDB1
:1001E00003B4FFF7F2FF03BC02F0CBFD09488047E0
:1001F00009480047FEE7FEE7FEE7FEE7FEE7FEE709
:10020000FEE7FEE7FEE7FEE704480549054A064B20
:100210007047000011270008ED0000088808002042
:10022000880E0020880A0020880A002070470000FD
:100230000FB4044910B503AA029800F045FC10BCA5
:100240005DF814FB240000200FB41CB5074B06AA70
:100250007B4469460090059800F007FC0020694641
:1002600000F016FC1CBC5DF814FB00003D0800000B
:1002700070B5044685690068C10601D5302600E0E6
:100280002026C00707D070BDD4E901213046904731
:10029000206A401C20626D1EF6D570BD70B5044604
:1002A00085690078C00707D170BDD4E901212020FD
:1002B0009047206A401C20626D1EF6D570BD70B557
:1002C0000C460546012A05D02878800600D5EA6943
:1002D000002302E0012305E05B1C934202D2E05CB4
:1002E0000028F9D1A869E618C01AA861286A18443C
:1002F00028622846FFF7BCFF04E0D5E9012114F885
:10030000010B9047B442F8D32846FFF7C7FF70BDF2
:100310002DE9F0410646002410687529314616A5DE
:1003200010D0AFF30080002802DA404213A507E0A6
:1003300031688A0701D512A502E0490704D511A545
:10034000012401E0AFF3008000210A2206F1240716
:1003500009E0B0FBF2FCB0FBF2F302FB1C00303012
:1003600078541846491C0028F3D123462A463046C3
:10037000BDE8F04100F00DB9000000002D000000C4
:100380002B000000200000002DE9F0474FF0000A8C
:1003900089460446C0F820A02046E1688847002826
:1003A00076D0252806D0D4E901219047206A401C48
:1003B0002062F1E7E168204600258847C4F81CA0C8
:1003C00006460027C4F818A02A2E09D0304602F0AD
:1003D000D1FC38B304EB8708303EC8F8186019E048
:1003E00059F8041B204604EB87029161E1688847B5
:1003F000012F064618D1E069002820DA25F02005F3
:100400001DE0D8F8180000EB800006EB4000303803
:10041000C8F818002046E1688847064602F0AAFCA2
:100420000028EED1012F0AD02E2E08D12046E168F7
:1004300088477F1C0646022F45F02005C4DBA069D3
:10044000002803DA404245F00105A061E80701D029
:1004500025F01005B6B1A6F14100192802D82036C2
:1004600045F400654A463146204625604D46FFF773
:1004700097FE58B1012806D0ED1D25F0070000F1C8
:10048000080989E704E005F1040985E730468AE7B1
:10049000206ABDE8F08730B505460B462A4613F8BA
:1004A000014B12F8010B08B1A042F8D01CB1002892
:1004B00002D06D1CF1E7284630BD10B5431C02E0A8
:1004C00010F8011B71B18107FAD14FF0013202C857
:1004D0008C1A8C4314EAC211F9D0C01A0A0603D050
:1004E000C01E10BDC01A10BD0A0401D0801E10BD70
:1004F0000902FCD0401E10BD4FF000020429C0F0DC
:10050000128010F0030C00F01B80CCF1040CBCF145
:10051000020F18BF00F8012BA8BF20F8022BA1EB97
:100520000C0100F00DB85FEAC17C24BF00F8012B7C
:1005300000F8012B48BF00F8012B70474FF0000274
:1005400000B5134694469646203922BFA0E80C50C9
:10055000A0E80C50B1F12001BFF4F7AF090728BFA4
:10056000A0E80C5048BF0CC05DF804EB890028BF20
:1005700040F8042B08BF704748BF20F8022B11F049
:10058000804F18BF00F8012B7047704770477047C5
:1005900070472DE9F0470D4699469246044600F112
:1005A00024080168880604D5E06921F01001216063
:1005B00000E00120A84201DD471B00E00027A169FF
:1005C0007A1902EB0900081AA0612078C00602D44B
:1005D0002046FFF74DFE002608E0D4E901211AF875
:1005E00006009047206A401C761C20624E45F4DBD2
:1005F0002078C0060AD52046FFF73AFE06E0D4E987
:10060000012130209047206A401C2062381EA7F14B
:100610000107F4DC07E0D4E9012118F80500904750
:10062000206A401C2062281EA5F10105F3DC20464B
:10063000FFF734FE2078000602D50220BDE8F087DF
:100640000120FBE770472DE9FF4F0C461E464FF097
:10065000FF378BB0D2E90001DDF860800A908A464E
:10066000C1F30A5505B93D46002108464FF0000088
:10067000BAF1000F00F4400005DA00EB80004FF4FF
:10068000400101EA50004FEA9059B9F1010F00DD35
:10069000B9460A9850EA4A000ED044F61050A5F226
:1006A000FF3545432F14B8F1000F1ED07542291EA7
:1006B0001EDDC9F100021CE0B8F1010F4FF000008F
:1006C00001D0302103E0F24305E02154401CB04248
:1006D000FBDB30460022002121540B99C1F8088031
:1006E000C1E900200FB0BDE8F08FBD1B6D1CDEE737
:1006F0004A4600DA694206A800F082FA06AB93E89F
:10070000070003AB83E8070050460A9900F05CFB42
:100710008DE80700A0F500501F3800900398002DC9
:1007200009DD42F21F014A46084403A903906846C6
:1007300000F0BBFD08E0A0F500504A461F3803A9B1
:100740000390684600F0C5FD8DE807000004000C2A
:1007500003D04FF0FF30410800E01046B8F1000F21
:1007600003D00022009215461EE0751E05D400F04D
:10077000C1F9303262556D1EF9D5B34601220843E6
:1007800002D000227F1C04E02078302801D1002212
:100790007F1E002A099786D01DE0112D07DA00F090
:1007A000A9F9303262556D1C50EA0102F5D10843B7
:1007B00002D00098C8B10EE00021681E05E0235C5D
:1007C000625C63542254401E491C8142F7DBAB46F5
:1007D000A81B401E0990002004F80B000B98099AF2
:1007E000C0F80880C0E9002B7CE711264FF0000814
:1007F00059E72DE9F04F88460446D21D22F0070143
:1008000091B0D1E90001CDE90A0102F09FFA024658
:100810000B98C00F01D02D2007E02068810701D57B
:100820002B2002E0202101EAC000032A099001D018
:10083000072A05DB03464146204600F0A1F90BE1FB
:100840002078800601D5E06900E00620B8F1650F48
:10085000814606D0B8F1660F18D0B8F1670F70D195
:1008600031E00020B9F1110F009001DB112301E00C
:1008700009F101030AAA01A90CA8FFF7E4FEDDE9CA
:100880000C70002609F10105834647E001204B4624
:1008900000904FF000470AAA01A90CA8FFF7D3FE69
:1008A000DDE90DB00C995D46002610B909F1010093
:1008B0000D18B9EB050003D4C0F1FF3609F10105AD
:1008C000A5EB09002BE0B9F1010F01DA4FF00109A6
:1008D0000020B9F1110F0090484601DD112300E01E
:1008E00003460AAA01A90CA8FFF7ADFEDDE90C70CA
:1008F0004D4600268346207800070AD4AB4500DA2F
:100900005D4601A8012D04DD411911F8011C3029B3
:1009100007D04F4502DA17F1040F04DA01208246AE
:100920000FE06D1EEEE7002F02DCED1B3E4403E0FE
:10093000781CA84200DD7D1CB81B00F1010A4FF0B5
:1009400000472078000703D4AA4501DB4FF0FF3AA7
:100950000021B7F1004F0DF143088DF8431024D06A
:1009600002202B23002F01DA7F422D230A21021EB1
:10097000A0F1010000DC5FB197FBF1FC97FBF1F205
:1009800001FB1C7C17460CF1300C08F801CDEEE79A
:10099000A8F1010003702188090501D5452100E077
:1009A0006521A0F1010800F8011C09980FA9A1EB2D
:1009B0000807FF1D00B10120411901EBEA70A16990
:1009C0003844081A401EA0612078C00602D4204690
:1009D000FFF74EFC099828B1D4E901219047206A1D
:1009E000401C20622078C00622D52046FFF740FC3C
:1009F0001EE0002E04DBB34502DD01A8805D00E0AF
:100A00003020D4E901219047206A401C2062761CE6
:100A1000AAF101005FEA000A0AD100F067F8C06895
:100A20000168405CD4E901219047206A401C2062A3
:100A3000281EA5F10105DCDC07E0D4E9012118F846
:100A4000010B9047206A401C2062381EA7F1010765
:100A5000F3DC2046FFF722FC032011B043E6000040
:100A600001694A1C02610878704700B58FB0CDE972
:100A700001310021059105497944CDE90310114662
:100A80006846FFF781FC0FB000BD0000E5FFFFFFE7
:100A90000A6802F8010B0A60704710B5436913B188
:100AA000AFF3008001E0FFF70AFC012010BD1278CF
:100AB00000F124010A7000224A700122EDE711685A
:100AC0004FF0FF32E9E70000074B70B50D467B445D
:100AD000FFF7CBFF0446284600F000F910B14FF0B5
:100AE000FF3070BD204670BDCF2300000048704726
:100AF0004808002030B5B0F10A024FEA900E71F1BB
:100B000000034EEA817EB0EB0E0061EB91014FEAEB
:100B1000101E4EEA017E10EB0E0041EB11114FEA60
:100B2000102E4EEA016E10EB0E0041EB11214FEA40
:100B3000104E4EEA014E10EB0E0041EB11414018F1
:100B400041F100014FEAD00040EA41704FEAD10183
:100B500010EB80054FEA810444EA907444EB0104F1
:100B60006D1944EB0404521BA3414FF0000348BF2E
:100B70000A3200D530BD401C41F1000130BD0000FB
:100B80002DE9F0411F46044603260168072A01F4B7
:100B9000006004DB08B116A505E016A503E008B166
:100BA00015A500E015A521F010002060A069C01E69
:100BB000A0610FB1401EA0612046FFF759FB4FB165
:100BC000D4E9012138469047206A401C2062C01CAD
:100BD000206206E0206AFAE7D4E9012115F8010B4A
:100BE0009047761EF8D22046FFF758FBBDE8F0810B
:100BF0004E414E006E616E00494E4600696E6600C1
:100C00002DE9F047814616468AB0334878440DC82E
:100C10008DE80D0030487844801C03AC0DC884E892
:100C20000D0041F69B300844372190FBF1F290FB18
:100C3000F1F5A5F1800501FB12041B3C02D56442CD
:100C4000012000E00020DFF890A080460027FA4451
:100C5000AAF1BE0A0DE0E00709D03246684607EB6C
:100C600047010AEB810100F034FB8DE807006410B6
:100C70007F1C002CEFD1184F7F44AC3F18E0E807F1
:100C800014D007EB04100DF1180A90E80E008AE862
:100C90000E00C068F04201D198190890324606A9AA
:100CA00003A800F016FB03AB83E807006D10641C7B
:100CB000002DE4D132466946B8F1000F03A802D0F6
:100CC00000F0F3FA01E000F004FBC9E90001C9F803
:100CD00008200AB0BDE8F08718360000007B00F05D
:100CE0008000704700487047280800207546FFF7CD
:100CF000F9FFAE4605006946534620F007008546D9
:100D000018B020B5FFF780FABDE820404FF000068C
:100D10004FF000074FF000084FF0000B21F00701E3
:100D2000AC46ACE8C009ACE8C009ACE8C009ACE826
:100D3000C0098D46704710B50446AFF300802046C9
:100D4000BDE81040FFF74CBA4FF0013C50F8042BBF
:100D500051F8043B9A4221D1A2EB0C03934313EACE
:100D6000CC1317D150F8042B51F8043B9A4215D1FB
:100D7000A2EB0C03934313EACC130BD150F8042BD2
:100D800051F8043B9A4209D1A2EB0C03934313EAB6
:100D9000CC13DBD04FF00000704700BFD01A01BA6F
:100DA000B1FA81F101F0180122FA01F0CB40C1F152
:100DB0002001DBB2C0B2C01A2CFA01F3D11A914360
:100DC00011EAC311E6D170475FEA400C08BF91F009
:100DD000000F4FEA8C234FEAC12243EA51514FEAF8
:100DE0001C5018BF00F5F0404FEA300018BF41F02A
:100DF00000415FEA6C5C00F02980BCF1FF3F08BF56
:100E000040F080407047130C06BF12044FF0100CE6
:100E10004FF0000C130E04BF12020CF1080C130F5C
:100E200004BF12010CF1040C930F04BF92000CF1EB
:100E3000020CD30F04BF52000CF1010C11464FF00D
:100E40000002A0F11F00A0EB0C00704711F0004F52
:100E500008BF704731F000413FF4D5AF0B0C06BF1F
:100E600009044FF0100C4FF0000C0B0E04BF0902E8
:100E70000CF1080C0B0F04BF09010CF1040C8B0FD3
:100E800004BF89000CF1020CCB0F04BF49000CF128
:100E9000010CCCF12003A0EB0C0022FA03F302FAC0
:100EA0000CF241EA030100F10100704720F07F4C91
:100EB00080EA030023F07F47ACEB070303F57C5384
:100EC00000F0004003F1FF032DE980494FEA154B84
:100ED00009B44FEA144325EA0B4E24EA03480FF203
:100EE000042606EB132749083E785FEA320203FB2B
:100EF0000667C7F5000707FB06F64FEA54374FEAC7
:100F0000D64606F1020607FB066CCCF1005C4FEA00
:100F10001C472CEA074C07FB06F40CFB06F504EB18
:100F200015464FEA961634BF00204FF000404FEAB6
:100F3000D13706FB07FC4FEA1C4C0CFB0BF7D21B0E
:100F400003FB0CF761EB07010CFB0EF7B0EB07405E
:100F500072EB17420CFB08F734BFA2EB0742B2EB6F
:100F6000074261EB17414FEA0C444FEA910706FB39
:100F700007FC4FEA1C4C0CFB0BF7B0EBC74072EBC5
:100F8000573203FB0CF734BFA2EBC742B2EBC742A8
:100F900061EB57310CFB0EF7B0EBC70072EB5772E9
:100FA0000CFB08F734BFA2EBC702B2EBC70261EB40
:100FB0005771039F4FEA816141EA921104EBCC041F
:100FC0004FEAD1374FEA826206FB07FC42EA9012F1
:100FD0004FEA80604FEA1C4C0CFB0BF7D21B03FB63
:100FE0000CF761EB07010CFB0EF7B0EB074072EB5F
:100FF00017420CFB08F734BFA2EB0742B2EB0742E3
:1010000061EB17414FEA8C554FEA910704EB9C24A2
:1010100006FB07FC4FEA1C4C0CFB0BF7B0EBC74080
:1010200072EB573203FB0CF734BFA2EBC742B2EBB3
:10103000C74261EB57310CFB0EF7B0EBC70072EB08
:1010400057720CFB08F734BFA2EBC702B2EBC70222
:1010500061EB577115EB4C254FEA816141EA921122
:101060004FEA82624FEAD13742EA901206FB07FC50
:1010700044F100044FEA80604FEA1C4C0CFB0BF774
:10108000D21B03FB0CF761EB07010CFB0EF7B0EB77
:10109000074072EB17420CFB08F734BFA2EB074284
:1010A000B2EB074261EB174115EB1C154FEA81319A
:1010B00041EA92414FEA823242EA90424FEA80305E
:1010C0004FEA0C7644F1000448EA03434EEA0B4829
:1010D0004FF0000EB2EB080C71EB030724BF624621
:1010E00039464EEB0E0E4FF0000B001852414941AD
:1010F0004BEB0B0BB2EB080C71EB03077BF1000B16
:1011000024BF624639464EEB0E0E4FF0000B00181E
:10111000524149414BEB0B0BB2EB080C71EB03074F
:101120007BF1000B24BF624639464EEB0E0E51EAAE
:10113000020718BF46F0010616EB0E7655F10002C5
:1011400054F1000103D5BDE88901BDE80088BDE880
:101150008901BDE80048B619524141EB0101A3F1F4
:101160000103704780807F7E7D7C7B7A79787776FB
:1011700076757473727171706F6E6E6D6C6C6B6A74
:101180006A69686867666665646463636261616012
:10119000605F5F5E5E5D5D5C5C5B5B5A5A5959588F
:1011A00058575756565555555454535352525251F9
:1011B000515050504F4F4F4E4E4D4D4D4C4C4C4B4F
:1011C0004B4B4A4A4A494949484848474747474696
:1011D00046464545454444444443434343424242D2
:1011E00042414141002B26D4770021D01CB54FEA63
:1011F000370703B44FF010004FF010014FF000001C
:101200000FBCBDE810400BF1010BBBF1010F08BF93
:101210005FEA170722BF12F1010211F101014FF03D
:10122000004143F1000300F0004043EA0000704732
:10123000F9D35708DAE746EA064613F1400F4FEABA
:1012400016461FDD13F1200FDFBF16430A460021AB
:1012500020335B42C8D0C3F1200746EA064602FAB3
:1012600007F74FEA164646EA0706C3F1200722FAB7
:1012700003F201FA07F721FA03F14FF0000342EA03
:101280000702B1E746EA020646EA06464FEA164674
:1012900046EA0106BCBF46EA0646360C4FF000039C
:1012A0004FF000024FF000019EE72DE9C048934641
:1012B00030B491E8380007C831EA400C48BF34EA3E
:1012C000430C03D5FFF7F2FDFFF78CFFF0BCBDE840
:1012D00000882DE9C048934630B491E8380007C82B
:1012E00010F0804F08BF13F0804F03D100F005F8D5
:1012F000FFF778FFF0BCBDE8008820F07F4780EA68
:10130000030023F07F4C07EB0C03A3F57C5300F0A4
:101310000040A3F1FE0392F0000F00F0B38095F0BF
:10132000000F00F077802DE901494FEA11404FEAA4
:10133000144621EA004800FB06FC24EA064708FBA5
:1013400006F607FB08F800FB07F718EB06484CEB1E
:10135000164C4FEA124B18EB07484FEA15464CEB78
:10136000174022EA0B4E0BFB06FC25EA06470EFB54
:1013700006F607FB0EFE0BFB07F71EEB064E4CEBCB
:10138000164C4FF000061EEB074E4CEB174B18EBBC
:101390000B0840F1000018EB0E0B58EB000840F171
:1013A00000008F1A4FF000013CBFC943661B14BFF9
:1013B000B5EB040C00213CBFC943F61B4FEA1744B0
:1013C0004EEA8E0E27EA04454FEA1C4704FB0762EB
:1013D0002CEA074C05FB07F70CFB05F604FB0CFC9D
:1013E00016EB074642EB174216EB0C4642EB1C424B
:1013F0001BEB060658EB0202414146EA9E0601D568
:10140000BDE80189B619524141EB0101A3F1010385
:10141000BDE801894FEA14454FEA114724EA054621
:1014200021EA074C05FB07F406FB07F70CFB06F166
:1014300005FB0CFC11EB074144EB17444FEA124744
:1014400011EB0C4144EB1C4422EA074C05FB07F26C
:1014500006FB07F70CFB06F605FB0CFC16EB074634
:1014600042EB174216EB0C4642EB1C456A1854F14E
:10147000000148BF7047B619524141EB0101A3F189
:101480000103704795F0000F37D04FEA11424FEA41
:10149000144721EA024624EA074C02FB07F106FB47
:1014A00007F70CFB06F402FB0CFC14EB074441EBC2
:1014B00017414FEA154714EB0C4441EB1C4125EA58
:1014C000074C02FB07F506FB07F70CFB06F602FBD1
:1014D0000CFC16EB074645EB174516EB0C4645EBA7
:1014E0001C42121951F1000148BF7047B619524110
:1014F00041EB0101A3F1010370474FEA14454FEAA4
:10150000114724EA054621EA074C05FB07F106FBD3
:1015100007F70CFB06F24FF0000605FB0CFC12EB84
:10152000074241EB174112EB0C4251EB1C4148BF03
:101530007047921841EB0101A3F10103704721B1FB
:10154000826842F00102826003E0826822F00102B8
:101550008260704710B504461248844208D10121C8
:10156000401500F0CFFF0021601500F0CBFF17E021
:101570000D48844208D10121001500F0C3FF00216D
:10158000201500F0BFFF0BE00848844208D101217C
:10159000C80300F0B7FF00214FF4004000F0B2FF95
:1015A00010BD00000024014000280140003C014023
:1015B000014600208A6802F004020AB1012000E01E
:1015C00000207047014600208A6802F008020AB134
:1015D000012000E00020704730B5024600200023C3
:1015E00050680F4C20400D790C6844EA05242043D4
:1015F000506090680B4C2040D1E902542C434D7947
:1016000044EA450420439060D06A20F470000C7CCA
:10161000641EE4B2234340EA0350D06230BD0000B0
:10162000FFFEF0FFFDF7F1FF816841F008018160E6
:101630007047816841F004018160704700B587B050
:1016400001214FF4017000F04DFF4FF4004000F015
:101650002DFF0220ADF8040000208DF8070001A93D
:10166000174800F085FD1748FFF774FF002002902F
:101670008DF80C008DF80D004FF4602004900020D0
:10168000059001208DF8180002A90E48FFF7A4FF6D
:1016900001210C48FFF753FF0A48FFF7C5FF00BFC1
:1016A0000848FFF78FFF0028FAD10648FFF7C1FF6F
:1016B00000BF0448FFF77CFF0028FAD107B000BD47
:1016C000000801400024014000BFFEE72DE9F04F73
:1016D00087B06421634800F0E3FD63490860C821D6
:1016E0006048FEF709FF0A2001F070FB20215F48E7
:1016F00000F0D2FD4FF48C7001F08EFB132001F04E
:101700008BFB2021594800F0C9FD42F2D05001F076
:1017100083FB069802F0F2FB804602F021FB0646AE
:101720004FF06632524B02F033F9044601F0EAFE04
:10173000504908600846006802F012FB4E4A4F4BC1
:10174000CDE9040102F024F980464D4A4D4B02F0E8
:101750001DFA064600224C4B02F01AF904460022FC
:101760004A4B01F001FF824601F0CCFE4849086077
:101770000A2001F02BFB474800F0A2F8002831D0E6
:101780004449487802F0F0F882460022424B01F0CA
:1017900093FF06460F463F49087802F0E5F8804679
:1017A00032463B4601F0E0FE044601F0ABFE3B4909
:1017B00008603849C87802F0D7F880460022364BD6
:1017C00001F07AFF04460D463249887802F0CCF8E1
:1017D000064622462B4601F0C7FE824601F092FEE5
:1017E0002F4908600A2001F0F1FA00212B48006817
:1017F00002F050FB32D000212948006802F04AFB79
:101800002CD000212248006802F044FB26D00021A1
:101810001548006802F03EFB20D01D48006802F029
:101820009FFA804689461048006802F099FA82467D
:101830008B461B48006802F093FA04460D46174891
:10184000006802F08DFA064632460B4615A11B4889
:101850008DE8300CCDE90489FEF7F6FC07B0BDE851
:10186000F08F00005E0700202C000020000C0140DB
:1018700066664A3F30000020C3F5285C8FC2C53F32
:101880009A9999999999B93F00408F400000594021
:101890003400002018000020000024403800002000
:1018A0003C000020252E326620252E326620252E73
:1018B000326620252E32660D00000000C20700208F
:1018C00070B5044600F03EF880211D4800F0DBFCB6
:1018D000002832D100BF8021194800F0D4FC002834
:1018E000F9D000BF8021164800F0CDFC0128F9D0C6
:1018F000002504E000F05CF86055681C85B2052DF9
:10190000F8DB00BF80210E4800F0BDFC0028F9D0B4
:1019100001F0CEFB80210A4800F0C0FC20786178FD
:101920000844A1780844E1780844C6B22079B0425E
:1019300001D1012070BD0020FCE70020FAE7000083
:101940000008014010B501F0B3FB8021084800F009
:10195000A3FC44F6382001F05FFA8021044800F02F
:101960009DFC1E2001F058FA01F08CFB10BD000018
:101970000008014010B500BF80210C4800F083FC36
:101980000028F9D0282001F047FA8021074800F00C
:101990007AFC012808D100BF8021044800F073FCC4
:1019A0000128F9D0012010BD0020FCE7000801400B
:1019B00070B50024002508E04FF6FF7000EA4404EB
:1019C000FFF7D8FF0443681C85B2082DF4DB2046DE
:1019D00070BD70472DE9F05F04468946DFF860A0CE
:1019E0004FF0000B09F10100164908601EE015498F
:1019F0000968605C02F082FA0646514602F092FAEB
:101A00000546594602F0D8F98346504602F0A8F937
:101A100007460D4A0D4B01F0BBFF054601F072FD74
:101A2000824608480068401C064908602046FEF7C8
:101A300044FD044909688842D9D85846BDE8F09F5A
:101A4000CDCCCC3D280000209A9999999999B93F1D
:101A500010B5002440210E4800F020FC4FF47A70AD
:101A600001F0B4F90FE04FF4FA73002209A10AA0C3
:101A700000F0FEFA00B110BD08A0FEF7D9FB00F09F
:101A800057F9601CC4B20A2CEDDB00BFF3E700007D
:101A9000000801404F4B0000415400000D0ACED217
:101AA000CAC7B6CFB5E3D2BB0D0A000010B586B0E9
:101AB00004460CB1012000E00020024606A101A866
:101AC000FEF7C2FB4FF4FA73002207A101A800F051
:101AD000CFFA06B010BD000041542B4349504D557C
:101AE000583D2564000000004F4B000010B54FF436
:101AF0007A7001F06BF904A1044801F000F84FF48A
:101B0000FA7001F063F910BD2B2B2B00004400404C
:101B100010B54FF4FA7300220DA10EA000F0A8FA40
:101B2000A0B110A11248FEF7B6FC08B1022010BD0A
:101B300010A10F48FEF7AFFC08B10320F7E710A192
:101B40000B48FEF7A8FC08B10420F0E70020EEE700
:101B50004F4B000041542B4349505354415455536B
:101B6000000000005354415455533A320D0A00000E
:101B7000940200205354415455533A330D0A000047
:101B80005354415455533A340D0A000008B501210D
:101B9000042000F0A7FC4020ADF8000010208DF8D4
:101BA000030003208DF802006946024800F0E0FAC5
:101BB00008BD00000008014030B59FB004460D4646
:101BC0002B46224606A101A8FEF73EFB41F28833D0
:101BD000002208A101A800F04BFA1FB030BD0000A0
:101BE00041542B43574A41503D222573222C222534
:101BF000732200004F4B0000F0B5B9B006460F4607
:101C000014461D46642120A8FEF798FC16B1012E4B
:101C100010D107E03B4614A214A120A80094FEF7BF
:101C200013FB08E03B4615A210A120A80094FEF784
:101C30000BFB00E000BF00BF052D06DA20AB2A46F3
:101C40000FA102A8FEF700FB04E020AA11A102A840
:101C5000FEF7FAFA4FF47A6312A216A102A800F076
:101C600007FA39B0F0BD000054435000222573221A
:101C70002C222573222C25730000000055445000AF
:101C800041542B43495053544152543D25642C2513
:101C90007300000041542B43495053544152543D6A
:101CA00025730000414C5245415920434F4E4E454B
:101CB000435400004F4B000010B5044624B1012CE2
:101CC0000AD0022C18D10FE040F6C4130BA20EA1CB
:101CD0000EA000F0CDF910BD40F6C41307A20AA172
:101CE0000DA000F0C5F9F6E740F6C41303A206A163
:101CF0000CA000F0BDF9EEE70020ECE76E6F20636A
:101D000068616E67650000004F4B000041542B4333
:101D1000574D4F44453D310041542B43574D4F449F
:101D2000453D320041542B43574D4F44453D330010
:101D300010B54021054800F0AFFA4FF4FA7001F0F9
:101D400045F84021014800F0A9FA10BD0008014003
:101D500092B014210CA8FEF7F1FB00210C460D46B1
:101D6000FFF776FE0020FFF7A7FF0020FFF79EFE9B
:101D700000BF052362A264A10020FFF73DFF0028F9
:101D8000F7D000BF00F0CEF90028FBD0002001F012
:101D900069F861A20021702001F038FA5FA20221E7
:101DA000702001F033FA5EA20421702001F02EFAB7
:101DB000A5E0FFF78BFC5C48006801F0D1FF064608
:101DC00032460B4659A10CA8FEF73EFA0CAA002198
:101DD000084601F01BFA5A48006801F0C1FF0646A8
:101DE00032460B4657A10CA8FEF72EFA0CAA022188
:101DF000002001F00BFA5848006801F0B1FF0646D8
:101E000032460B4655A10CA8FEF71EFA0CAA042177
:101E1000002001F0FBF95648006801F0A1FF0646DA
:101E200032460B4653A10CA8FEF70EFA0CAA062167
:101E3000002001F0EBF94848006801F091FF0646E8
:101E40000F464B48006801F08BFF81468A463C48AC
:101E5000006801F085FFCDE90A013348006801F010
:101E60007FFFCDE9049ACDE90667CDE90801DDE9F8
:101E70000A01CDE90201DDE9080122462B46CDE940
:101E8000000141A14A48FEF7DFF905230022484935
:101E9000012000F09DF84FF47A7000F097FF0022C7
:101EA000444B2046294601F05FFB04460D4642485C
:101EB000007800B3FFF71AFE00BFFFF729FE804647
:101EC000B8F1000FF9D0B8F1040F0FD100BF3BA15A
:101ED0003DA0FFF771FE0028F9D000BF052308A23E
:101EE00009A10020FFF788FE0028F7D000BF00F00E
:101EF00019F90028FBD042F2107000F067FF58E794
:101F0000363939390000000034372E39352E323356
:101F1000382E313632000000210D3A00600D3A00B3
:101F2000636D0D3A000000003800002048756D69AF
:101F3000646974793A25322E32660D3A0000000049
:101F40003C00002044656772656520203A25322EEA
:101F500032660D3A000000002C00002044697374C2
:101F6000656E63653A25322E31660D3A0000000039
:101F700034000020504D322E352020203A25322EBC
:101F800032660D3A00000000240A64627731323371
:101F90000A252E31660A31302E360A252E32660A7F
:101FA000252E32660A252E31660A252E31660D0051
:101FB000C2070020000014401D0000206E66383962
:101FC00035363337333936004462772E2E00000021
:101FD0002DE9F04186B007460C4615461E464FF0E7
:101FE00000083FB1224614A1144800F088FD4FF0CC
:101FF00001081CE0052E06DAAB1C324610A101A830
:10200000FEF722F904E0AA1C12A101A8FEF71CF9B0
:102010004FF47A73002213A101A800F029F84FF4BD
:102020007A73002210A1204600F022F88046404634
:1020300006B0BDE8F08100002573000000440040B8
:1020400041542B43495053454E443D25642C25644F
:102050000000000041542B43495053454E443D2558
:10206000640000003E20000053454E44204F4B00CA
:102070002DE9F04106460C4615461F462548B0F8A6
:1020800000046FF30E002349A1F80004324622A198
:10209000234800F034FD1CB915B90120BDE8F081DA
:1020A000B8B200F093FE00201A49B1F80014C1F351
:1020B0000E01184A5054114617A0FEF7B9F8B4B1F2
:1020C000ADB121461348FEF7E6F908B1012000E062
:1020D000002040B929460F48FEF7DDF908B101207C
:1020E00000E0002008B10120D8E70020D6E744B185
:1020F00021460848FEF7CFF908B10120CEE70020BD
:10210000CCE729460348FEF7C6F908B10120C5E728
:102110000020C3E79402002025730D0A0000000090
:102120000044004010B54FF4FA73002207A108A044
:10213000FFF79EFF08B9002010BD4FF4FA7308A204
:1021400002A108A0FFF794FFF6E700004F4B000044
:1021500041542B4349504D4F44453D310000000050
:102160003E00000041542B43495053454E4400006B
:102170002DE9F0410246002500260020002300241E
:10218000002791F803C00CF00F0591F803C00CF084
:10219000100CBCF1000F03D091F802C04CEA050509
:1021A00091F800C0BCF1000F31D0146800202BE082
:1021B0004FF0010C0CFA00F3B1F800C00CEA030672
:1021C0009E4220D183004FF00F0C0CFA03F7BC4362
:1021D00005FA03FC4CEA040491F803C0BCF1280F93
:1021E00006D14FF0010C0CFA00FCC2F814C00AE052
:1021F00091F803C0BCF1480F05D14FF0010C0CFA67
:1022000000FCC2F810C0401C0828D1D31460B1F8FB
:1022100000C0BCF1FF0F34DD546800202EE000F157
:10222000080C4FF0010808FA0CF3B1F800C00CEAF2
:1022300003069E4221D183004FF00F0C0CFA03F7E6
:10224000BC4305FA03FC4CEA040491F803C0BCF15A
:10225000280F05D100F1080C08FA0CF8C2F8148018
:1022600091F803C0BCF1480F07D100F1080C4FF002
:10227000010808FA0CF8C2F81080401C0828CED3D8
:102280005460BDE8F0810246002093680B400BB11A
:10229000012000E0002070474161704701617047F4
:1022A0002DE9F04104460E4600250027002039495B
:1022B00008600CE037480068205C2E2802D13548C1
:1022C000056808E033480068401C3249086031481E
:1022D0000068B042EED300BF00202E4908600FE036
:1022E0002C480068A84206D02A480068205C303894
:1022F00028490968605427480068401C254908603F
:102300002046FEF7DAF8234909688842E8D835B153
:10231000012D0ED0022D1BD0032D36D127E02946EA
:102320002046FFF757FB8046394601F045FD07463A
:102330002BE02946204600F031F807462946204682
:10234000FFF748FB8046394601F036FD07461CE0A2
:102350002946204600F022F8074629462046FFF786
:1023600039FB8046394601F027FD074600BF294664
:10237000204600F013F8074629462046FFF72AFBBF
:102380008046394601F018FD074600BF3846BDE8D3
:10239000F08100002800002000BFFEE72DE9F04793
:1023A00005460C4600264FF07E5700201149086074
:1023B00019E010490968611A491E685C01F09EFD28
:1023C0008146394601F0AEFD8046314601F0F4FC0D
:1023D00006460949384601F0A5FD0746054800684C
:1023E000401C0449086003480068A042E1D330461D
:1023F000BDE8F087280000200000204100BFFEE774
:102400007047000070B5002100230F22C47804B388
:10241000154C246804F4E064C4F5E064210AC1F1B9
:102420000403CA40447804FA03F184781440214339
:1024300009010E4C0678A155047804F01F0501240B
:10244000AC4005786D11AD0005F1E025C5F80041FF
:1024500009E0047804F01F050124AC40044D06781F
:10246000761145F8264070BD0CED00E000E400E078
:1024700080E100E008B50121082000F033F82020B9
:10248000ADF8000003208DF8020010208DF8030045
:1024900069460448FFF76CFE20210248FFF7FEFE64
:1024A00008BD0000000C01407047000001460020FC
:1024B000034A506820F440400843506070470000D1
:1024C0000010024029B1064AD2690243044BDA6186
:1024D00004E0034AD2698243014BDA61704700008D
:1024E0000010024029B1064A92690243044B9A61E6
:1024F00004E0034A92698243014B9A6170470000ED
:102500000010024029B1064AD2680243044BDA6047
:1025100004E0034AD2688243014BDA60704700004E
:102520000010024030B500210022002400232D4D70
:102530006D6805F00C0121B1042905D0082923D1CB
:1025400005E0294D056022E0274D05601FE0254D7F
:102550006D6805F47012234D6D6805F48034022512
:1025600005EB92421CB9214D554305600BE01D4D12
:102570006D6805F400351DB11C4D5543056002E042
:10258000194D5543056002E0174D056000BF00BFBF
:10259000144D6D6805F0F0010909154D6B5C056877
:1025A000DD4045600F4D6D6805F4E061090A104D8E
:1025B0006B5C4568DD4085600A4D6D6805F46051CF
:1025C000C90A0B4D6B5C4568DD40C560054D6D6803
:1025D00005F44041890B074D6B5CC568B5FBF3F50D
:1025E000056130BD0010024000127A0000093D0074
:1025F0008002002090020020704710B500F002F821
:1026000010BD00000CB50020019000903348006818
:1026100040F480303149086000BF3048006800F461
:10262000003000900198401C0190009818B9019862
:10263000B0F5A06FF1D12948006800F4003010B166
:102640000120009001E0002000900098012843D173
:102650002348006840F010002149086008460068DF
:1026600020F0030008600846006840F0020008609F
:102670001A4840681949486008464068486008465A
:10268000406840F4806048600846406820F47C1050
:1026900048600846406840F4E81048600846006812
:1026A00040F08070086000BF0C48006800F00070C7
:1026B0000028F9D00948406820F003000749486025
:1026C0000846406840F00200486000BF0348406888
:1026D00000F00C000828F9D10CBD000000100240E9
:1026E00000200240042808D14FF0E021096941F0A0
:1026F00004014FF0E022116107E04FF0E021096989
:1027000021F004014FF0E022116170477047000092
:1027100010B51348006840F00100114908600846F0
:102720004068104908400E494860084600680E4954
:1027300008400B4908600846006820F480200860C3
:102740000846406820F4FE0048604FF41F0088608F
:10275000FFF753FF4FF000600449086010BD000010
:10276000001002400000FFF8FFFFF6FE08ED00E059
:1027700010B540F22551134800F0FCF808B3114899
:1027800000F0B4F9C4B20D2C09D00F480F490978F4
:1027900044540E480078401C0C49087011E00A4A65
:1027A0000BA10C48FDF750FD00210A48074A12789A
:1027B000815400200549087040F22551014800F07D
:1027C000B1F810BD0038014096060020210000201D
:1027D000257300005E07002010B540F22551224805
:1027E00000F0C8F8F8B1204800F080F9C4B22146E2
:1027F0001E4800F080F91E48B0F80004C0F30E0037
:1028000040F2FF3188420EDA1949B1F80014C1F3E1
:102810000E00411C164AB2F8002461F30E0214495E
:10282000A1F800240C5440F224410F4800F0A2F813
:10283000012817D10E48B0F8000420F4004000F53C
:1028400000400B49A1F80004074800F04FF9C4B25A
:1028500008A10748FDF71FFE08B1012000E0002095
:102860000749087010BD00000044004000380140D6
:1028700094020020434C4F5345440D0A00000000D1
:102880001D00002010B540F22551204800F072F8DC
:10289000D8B11E4800F02AF9C4B21D48B0F80004AF
:1028A000C0F30E0040F2FF3188420EDA1849B1F849
:1028B0000014C1F30E00411C154AB2F8002461F364
:1028C0000E021349A1F800240C5440F224410F4891
:1028D00000F050F8012817D10D48B0F8000420F49A
:1028E000004000F500400A49A1F80004074800F044
:1028F000FDF8C4B207A10648FDF7CDFD08B10120DF
:1029000000E000200649087010BD000000480040AB
:1029100094020020434C4F5345440D0A0000000030
:102920001D00002010B50022002340F66A14A142C9
:1029300000D100BF0A1201249440A3B2DC430480FA
:1029400010BD21B1828942F40052828104E0828963
:102950004DF6FF731A408281704702460020B1F5A0
:10296000007F00D100BF13880B400BB1012000E0B5
:102970000020704770B50246002400230025002087
:1029800040F66A16B14200D100BFC1F3421501F012
:102990001F03012606FA03F3012D02D19689334065
:1029A00006E0022D02D1168A334001E0968A3340B8
:1029B0000C12012606FA04F41688344013B10CB147
:1029C000012000E0002070BDF0B503460024002681
:1029D0000025002040F66A17B94200D100BF184612
:1029E000C1F3421401F01F06012707FA06F5012C76
:1029F00001D10C3004E0022C01D1103000E0143081
:102A00001AB107682F43076002E00768AF43076009
:102A1000F0BD00002DE9F04786B005460E460024C3
:102A2000A24600BFA1460027B08900B100BF2F46D3
:102A30002C8A4CF6FF700440F08804432C82AC8949
:102A40004EF6F3100440B088318908437189084379
:102A50000443AC81AC8A4FF6FF400440B089044384
:102A6000AC8201A8FFF75EFD1F48874202D1DDF866
:102A700010A001E0DDF80CA0A88900F4004040B1EE
:102A80000AEBCA0000EB0A1031684900B0FBF1F80C
:102A900007E00AEBCA0000EB0A1031688900B0FBBE
:102AA000F1F86420B8FBF0F004012009642101FB77
:102AB0001089A88900F4004040B1322000EBC90021
:102AC000B0FBF1F000F00700044308E0322000EB17
:102AD00009106421B0FBF1F000F00F0004432C81D9
:102AE00006B0BDE8F0870000003801400146888844
:102AF000C0F308007047C1F30802828070470FB42A
:102B000070B586B006460CA8019073E00B9800786B
:102B10005C281CD10B98401C0B9000786E2809D0C3
:102B200072280FD10D213046FFF7E5FF0B98401CAE
:102B30000B900BE00A213046FFF7DDFF0B98401C9D
:102B40000B9003E00B98401C0B9000BF4BE00B98E0
:102B50000078252840D10B98401C0B900078642801
:102B600018D0732833D1019810C801900BE0217858
:102B70003046FFF7C0FF00BF80213046FFF7EDFE73
:102B80000028F9D0641C20780028F0D10B98401C54
:102B90000B9020E0019820C801900A2202A9284643
:102BA00000F00AFA02AC0BE021783046FFF7A3FFF1
:102BB00000BF80213046FFF7D0FE0028F9D0641C0A
:102BC00020780028F0D10B98401C0B9003E00B9864
:102BD000401C0B9000BF06E00B9810F8011B0B90F7
:102BE0003046FFF788FF00BF80213046FFF7B5FE73
:102BF0000028F9D00B980078002887D106B070BC67
:102C00005DF814FB10B586B00446012144F20400BF
:102C1000FFF768FC4FF40070ADF8140003208DF846
:102C2000160018208DF8170005A91C48FFF7A0FA18
:102C30004FF48060ADF8140004208DF8170005A94A
:102C40001648FFF795FA25208DF8000000208DF832
:102C500001008DF8020001208DF803006846FFF79F
:102C6000D1FB01940020ADF80800ADF80A00ADF8E2
:102C70000C00ADF810000C20ADF80E0001A90848BA
:102C8000FFF7C8FE012240F225510548FFF79CFEE0
:102C900001210348FFF755FE06B010BD00080140B2
:102CA0000038014010B586B0044601214804FFF702
:102CB00009FC01210420FFF715FC0420ADF81400E5
:102CC00003208DF8160018208DF8170005A91C4860
:102CD000FFF74EFA0820ADF8140004208DF8170015
:102CE00005A91748FFF744FA26208DF800000320B5
:102CF0008DF801008DF8020001208DF80300684670
:102D0000FFF780FB01940020ADF80800ADF80A0041
:102D1000ADF80C00ADF810000C20ADF80E0001A9C4
:102D20000848FFF777FE012240F225510548FFF7DA
:102D30004BFE01210348FFF704FE06B010BD000062
:102D4000000801400044004000BFFEE7490050EA8F
:102D5000C12018BF04204A0D18BF40F0010040F206
:102D6000FF72B2EB515F08BF40F00200012808BFBC
:102D70000520704730380A2801D201207047002012
:102D80007047014600BF704710B56FF00400FFF7B1
:102D9000A9FC0A4800680A49B0FBF1F0094908702B
:102DA0000846007800EB4001C1EBC0104FF6FF7100
:102DB00001EAC0000449088010BD000000000020A6
:102DC00000127A0014000020160000200146114A6B
:102DD00012884A434FF0E0235A6100229A611A4652
:102DE000126942F001021A6100BF4FF0E02210693F
:102DF00000F001021AB100F48032002AF5D04FF041
:102E0000E022126922F001024FF0E0231A61002251
:102E10009A617047160000200146114A12784A4311
:102E20004FF0E0235A6100229A611A46126942F07B
:102E300001021A6100BF4FF0E022106900F00102A8
:102E40001AB100F48032002AF5D04FF0E022126966
:102E500022F001024FF0E0231A6100229A617047CC
:102E60001400002070B50646002415E004F1B001FE
:102E7000C8B200F005FB002000F002FB102000F0BB
:102E8000FFFA002504E0304600F010FB681C85B214
:102E9000842DF8DB601C84B2082CE7DB70BD0000D9
:102EA00000BF054A128802F04002002AF9D0C2B2DF
:102EB000014B1B1D1A8070470038014008B50121E5
:102EC0000420FFF70FFB2020ADF8000014208DF840
:102ED000030003208DF8020069460B48FFF748F90C
:102EE00020210948FFF7DAF901210420FFF7FAFA57
:102EF0004020ADF8000069460348FFF739F940214A
:102F00000148FFF7CBF908BD0008014010B5AE201D
:102F100000F0B6FA202000F0B3FA102000F0B0FA6A
:102F2000B02000F0ADFAC82000F0AAFA002000F0AE
:102F3000A7FA102000F0A4FA402000F0A1FA8120A6
:102F400000F09EFADF2000F09BFAA12000F098FA32
:102F5000A62000F095FAA82000F092FA3F2000F099
:102F60008FFAA42000F08CFAD32000F089FA002018
:102F700000F086FAD52000F083FAF02000F080FA05
:102F8000D92000F07DFA222000F07AFADA2000F051
:102F900077FA122000F074FADB2000F071FA20209A
:102FA00000F06EFA8D2000F06BFA142000F068FA41
:102FB000AF2000F065FA10BDF0B503460D46164689
:102FC000002729460A2E03D0002008702846F0BDAD
:102FD00033B9302001F8010B002008702846F6E7CD
:102FE000002B03DA2D2001F8010B5B4242F2107234
:102FF0000DE093FBF2F404B937B104F1300001F8AD
:10300000010B04FB123301270A2092FBF0F2002A85
:10301000EFDC002008702846D9E7000010B5FFF764
:10302000B3FE4FF41650FFF7EDFD4FF4E130FFF71C
:1030300039FEFFF71FFAFEF701FBFFF73FFFFFF72F
:1030400065FF0020FFF70EFF07A20221202000F0FD
:10305000DDF808A204210F2000F0D8F8FEF796FD55
:10306000FEF776FE002010BD4E6574776F726B0D13
:103070003A000000436F6E6E656374696E672E2EB2
:103080002E0D3A0008B501210420FFF72BFA80200D
:10309000ADF8000003208DF8020004208DF8030035
:1030A00069460248FFF764F808BD000000080140C7
:1030B00008B501210420FFF715FA8020ADF80000C3
:1030C00003208DF8020010208DF8030069460248A5
:1030D000FFF74EF808BD00000008014070B5044637
:1030E00000F04AF800251DE004F0800020B1202106
:1030F0000E48FFF7D3F803E020210C48FFF7CCF887
:103100006006040E40210948FFF7C8F80120FFF7C8
:1031100083FE40210548FFF7BFF80120FFF77CFE42
:10312000681CC5B2082DDFDB70BD0000000801403F
:1031300070B504460D4605F1B001C8B200F0A0F923
:10314000102141EA141000F09BF904F00F0000F088
:1031500097F970BD08B501210820FFF7C3F92020B9
:10316000ADF8000048208DF8030069460148FEF7DD
:10317000FFFF08BD0008014008B501210420FFF74A
:10318000B1F92020ADF8000014208DF803000320D1
:103190008DF8020069460448FEF7EAFF2021024844
:1031A000FFF77CF808BD0000000801402DE9F04160
:1031B00007460E4615467F2F01DC072E01DD00274E
:1031C000002631463846FFF7B3FF002407E004EB42
:1031D00005110D4A505C00F069F9601CC4B2082C5E
:1031E000F5DB701CC1B23846FFF7A2FF082407E0E8
:1031F00004EB0511044A505C00F058F9601CC4B29D
:10320000102CF5DBBDE8F081400000202DE9F041F5
:1032100006460F4614464FF000080025CCE0605DDE
:103220004E2870D02ADC36285BD014DC312849D0F7
:1032300008DC202868D0212867D02E287CD03028B0
:103240003FD13CE0322840D0332841D0342842D00E
:103250003528F5D142E0432871D008DC372843D027
:10326000382844D0392845D03A28E9D145E04428C7
:1032700046D048286AD04D28E2D17DE06D2858D04C
:1032800012DC65284CD008DC502872D0602869D048
:1032900063284BD06428D3D15EE0672850D06928DA
:1032A00034D06B287DD176E06E380C2879D2DFE8F7
:1032B00000F03A6F78784A303350786C78564FF097
:1032C00000086EE04FF001086BE04FF0020868E084
:1032D0004FF0030865E04FF0040862E04FF0050886
:1032E0005FE04FF006085CE04FF0070859E04FF050
:1032F000080856E04FF0090853E04FF00A0850E084
:103300004FF00B084DE03DE030E038E04FF00C08A6
:1033100047E04FF00D0844E04FF00E0841E00BE0AD
:103320004FF00F083DE04FF010083AE04FF0110861
:1033300037E04FF0120834E04FF0130831E02DE091
:103340004FF014082DE04FF015082AE04FF0160852
:1033500027E04FF0170824E04FF0180821E04FF065
:1033600019081EE04FF01A081BE002E04FF01B089E
:1033700017E04FF01C0814E04FF01D0811E04FF06B
:103380001E080EE04FF01F080BE04FF0200808E089
:103390004FF0210805E04FF0220802E04FF023082B
:1033A00000BF00BF424639463046FFF7FFFE06F138
:1033B0000800C6B2681CC5B2605D0D287FF42FAF4F
:1033C000BDE8F08110B5FFF7D7FE40210A48FEF7AF
:1033D00065FF20210848FEF761FF0120FFF71CFD73
:1033E00020210548FEF758FF0120FFF715FD402179
:1033F0000148FEF751FF10BD0008014010B5FFF76E
:10340000BBFE20210A48FEF747FF40210848FEF78F
:1034100045FF0120FFF700FD20210548FEF73EFF94
:103420000120FFF7F9FC40210148FEF735FF10BDF0
:103430000008014010B50024FFF78CFE40210F4822
:10344000FEF72CFF0DE0601CC0B20446322805DDFB
:1034500040210A48FEF720FF002010BD0120FFF7A1
:10346000DBFC20210548FEF70EFF0028EBD14021B0
:103470000248FEF711FF0120EFE7000000080140BD
:1034800010B50446FFF79EFF7820FFF727FEFFF7F1
:10349000D1FF0020FFF722FEFFF7CCFF2046FFF709
:1034A0001DFEFFF7C7FFFFF7A9FF10BD10B50446CB
:1034B000FFF788FF7820FFF711FEFFF7BBFF4020E2
:1034C000FFF70CFEFFF7B6FF2046FFF707FEFFF7FA
:1034D000B1FFFFF793FF10BD10B500290AD008789F
:1034E000002807D005487844FDF72EFC002801D0BD
:1034F000002010BD0248784410BD00007A0D000085
:10350000720D000021F00042A2F16052B2F5801F5E
:1035100001F0004328BFD2F17F6C0BD95FEA001C99
:1035200043EAC20242EB507018BF704728BF20F038
:1035300001007047B2F5801FBCBF184670474FEAC4
:10354000410C1CF5001F02D2084600F0B2BD70B558
:1035500000F0C8FA00000089FFF7F6BF4FF0004006
:10356000A0F580007047000010B591EA030F48BF36
:1035700083F0004300F11283841A71EB030C05D22F
:10358000121943EB0C03001B61EB0C01DFF824E183
:103590004FEA1154A4EB135C1EEA430F18BF9EEAD6
:1035A000445F73D023EA0E03DCF1200E21EA0451BC
:1035B00043F4801332D322FA0CFE10EB0E0023FAF0
:1035C0000CFE41EB0E01CCF1200E03FA0EFE10EBC7
:1035D0000E0051F10001B1F5801FCCF1200E32D266
:1035E00001EB045112FA0EF2BDE8104058BF7047CB
:1035F000401C38BF5FEA420218BF7047002814BF62
:1036000020F0010041F100014FEA410313F5001FD2
:1036100038BF7047A1F1C04100F0B2BA012A43EBB4
:103620000302ACF1200CDCF11F0E32BF4FF0000E94
:1036300023FA0CF310EB030041EB0451B4EB115FE0
:10364000D0D0A1EB045101F5801149085FEA3000A8
:1036500001EB04510ED350F1000038BF12FA0EFEF8
:1036600008D1BDE81040C9E7401C38BF5FEA4202FC
:10367000CAD1C3E7BDE810404FEA410313F5001F6C
:1036800038BF7047A1F1C04100F07ABA9EEA445FAA
:1036900008D011EA5E0FBDE8104004BF01F0004100
:1036A00000207047BDE8104070B500F01BFA00BF65
:1036B00064FBBE3E0000E0FF2DE9C04130B4DFF8FE
:1036C000A0C23CEA111418BF3CEA131400F0EC80CD
:1036D00081EA03051CEA111444EAD57418BF1CEAF8
:1036E000131500F0C780A4EB05044FF0004545EA30
:1036F000C12145EAC32341EA505143EA525304F140
:103700007F74994204F500344FEAC0204FEAC22288
:1037100008BF904200F09C804FEA13650FF24016FC
:10372000765D4FEA134506FB05F7C7F1807706FB88
:1037300007F74FEAD737A7FB03687642C8F580380A
:10374000A7FB06CE38BFA8F1010807FB08E64FF03B
:10375000000EA6FB028CE6FB03CEDCF1000CCEF1E2
:10376000004E38BFAEF1010EA6FB0C584FF000071B
:103770004FF00005E6FB0E87A1FB08C6A0FB07CEB5
:1037800016EB0E0645F10005E1FB076515F1E04E6D
:103790007EBFA4F580345FEA46066D4116F18007CE
:1037A00045F100054FEA17274FEA066647EA056725
:1037B000A6F1DE46B6F1805F4FEA15251FD93846DF
:1037C00024F0010C05EBC471BCF1FE6F01EB0C1190
:1037D00002D8F0BCBDE8008124425CBF01F5801E28
:1037E0009EEAC47F02D4F0BCBDE80081244238D4F4
:1037F000F0BCA1F1C041BDE8004100F0C1B94FEA01
:10380000D22242EA43524FEAD323A7FB02864FEA71
:10381000D02040EA415007FB03661EEA0E0F4FEA34
:10382000D12105FB026658BFA6EB0056B6EB005649
:103830004FEA520E4EEAC37E18EB0E0E56EB530EB5
:10384000BDD518EB02085E417F1C55F10005B6E7B7
:103850004FF480154FF000074FF000064FF00008BE
:10386000ADE7F0BC4FF0000001F1C04101F00041B4
:10387000BDE8008111EA0C1F0CEA131500D00CE022
:1038800013EA0C1F00F025804FF00000F0BC81EA25
:10389000030101F00041BDE80081F0BCBDE800413A
:1038A00081EA030100F06CB9F0BCBDE8004170B5DD
:1038B00000F018F9097EFC3E00F007B881EA030128
:1038C0004FF0000001F00041704781EA030100F071
:1038D00057B9F0BCBDE800414FF0000021497047E6
:1038E000FFFDFBF9F7F5F4F2F0EEEDEBE9E8E6E4C5
:1038F000E3E1E0DEDDDBDAD8D7D5D4D3D1D0CFCD4C
:10390000CCCBCAC8C7C6C5C4C2C1C0BFBEBDBCBB84
:10391000BAB9B8B7B6B5B4B3B2B1B0AFAEADACAB7F
:10392000AAA9A8A8A7A6A5A4A3A3A2A1A09F9F9E59
:103930009D9C9C9B9A99999897979695959493930B
:10394000929191908F8F8E8E8D8C8C8B8B8A8989A2
:103950008888878786858584848383828281818025
:103960000000FF070000F87FB0FA80F310FA03F1BF
:103970000AD0C3F11D0303F580634FEA41504FEABB
:10398000035202EBD12170474FF000007047000056
:10399000DFF848C170B51CEA111E1EBF1CEA1315E2
:1039A0009EEA0C0F95EA0C0F00F06F8081EA030489
:1039B00023EA4C134EEAD47E21EA4C1141F48011E3
:1039C00043F48013AE44A1FB024CA0FB0365AEF1AF
:1039D0007F7E361955EB0C05A1FB034C4CF100031F
:1039E000A0FB021C16EB0C06654153F100030942D3
:1039F00018BF46F0010613F4007F0BD14FEA0331E4
:103A00004FEA0530340341EA155140EA16506FF091
:103A100003020AE04FEAC3214FEAC520F40241EA5B
:103A2000555140EA56506FF0020202EB2E4201EB74
:103A3000025585EACE710AD05FEA440C18BF24F023
:103A4000004450F1000041F1000120EAD47040F23E
:103A5000FE7C624500D270BDA84214BF4FF0804486
:103A60004FF04044002E08BF0024BEF1806FA8BF75
:103A7000A1F1C041BDE8704080F282804FF00000AB
:103A800001F1C04101F0004170479EEA0C0F0CEAC1
:103A9000131518BF95EA0C0F06D04FF0000081EA0D
:103AA000030E0EF0004170BD00F01CF88900013ECD
:103AB00000F007B800F009B84FEA430C5FEA5C5C1D
:103AC00008D081EA030100F05BB84FEA410C5FEADD
:103AD0005C5CF6D14FF00000014970470000FF0721
:103AE0000000F87F0EF1020E2EF0030E5EF8046B5C
:103AF000364205D4012A43EB030515F5001F12D801
:103B0000012841EB010C1CF5001F0CD80ED14FEA27
:103B1000D17C15F5001F0CEB4C0C0CF1020C08BF0E
:103B20004CEBD37C04E04FF0080C01E04FEAD37C6F
:103B30000CEB4C0526FA05F606F00706B6F1040C68
:103B400006D20EEB860CBDE870404CF0010C6047CD
:103B5000DFE80CF0090B02024FF000414FF00000CB
:103B6000A1F5002170BD19461046012851EB010452
:103B700018BFD4F5001484BF002001F0004170BDCF
:103B80000808A0F500114FEA3101704710B591EA1D
:103B9000030F48BF83F000433FF5EEAC841A71EB8E
:103BA000030C07D212198CF0004C43EB0C03001BE2
:103BB00061EB0C01DFF8A4E14FEA1154A4EB135CB4
:103BC0001EEA430F18BF9EEA445F00F0B08023EA6C
:103BD0006E03524221EA0451C3EB6E0338BF5B1EF1
:103BE000DCF1200E25D322FA0CFE10EB0E0043FA76
:103BF0000CFE41EB0E01CCF1200E03FA0EFE10EB91
:103C00000E0051F10001CCF1200E29D412FA0EF26F
:103C100001EB0451BDE8104058BF7047401C1CBF69
:103C2000B2F1004F704700280CBF491C20F0010082
:103C3000704712EB020E43EB030218BF4FF0010E68
:103C40004EEA4202ACF1200CDCF11E0E54D943FACC
:103C50000CFE10EB0E0051F1FF31CCF11E0ED5D54C
:103C60000EF1010E12FA0EFE404141EB010101EB93
:103C7000445C5FEA5C5C10D910EBDE7001EB045130
:103C800038BFBEF1004FBDE8104018BF7047002894
:103C90000CBF491C20F00100704730D24FEAD42CF1
:103CA00011F5001124F400641BD0B1FA81F20B3A33
:103CB000A41AA41ED2F12003914030FA03F3194351
:103CC000904001EBCC71002C01EB0451BDE8104099
:103CD000A8BF704701F1C0414FF0000001F0004162
:103CE0007047B0FA80F310FA03F100D110BDE41A66
:103CF000173C4805C90AE4E701EB045110BD49101F
:103D000001EB0451BDE810404FEA300002E04FF0F3
:103D1000000170474A0008BF0042F8D0B2F5001F0A
:103D200028BF704701F000414FF0000070479EEA45
:103D3000445F07D011EA5E0FBDE8104004BF0021C8
:103D400000207047BDE8104070B5FFF7CBFE00BF04
:103D500040DFF63E83F00041104670470000E0FF70
:103D600043004FEAD30C4FEA3C0C43401FBF4007CF
:103D70000CF1605113F0FE4F70471CF0006F03D13F
:103D800000200CF0004170470CF0004343EA5070F3
:103D900010B540EACC0000F046F900BF00000092E8
:103DA0004FEA0001FFF7ECBE4FF000414FF000007A
:103DB000A1F500217047000090EA010F48BF81F093
:103DC000004100F18281421A3CBF801A89184FEAF3
:103DD000D0524FF07F4C1CEA410FA2EBD15318BFD9
:103DE0009CEA026F00F03B804FF0004C4CEA002050
:103DF0004CEA012121FA03FC10EB0C0C1ED202F15B
:103E0000FF325FEA1C2040EBC25038BF70471CF005
:103E10007F0F4FEA400C18BFBCF17F4F38BF70478F
:103E2000C3F12003994008BF20F00100BCF17F4F8F
:103E300038BF7047A0F1C04000F03BB94FEA3C00EA
:103E4000000A40EBC25028BF1CF0FF0F4FEA400CA5
:103E5000E6D018BFBCF17F4F38BF7047EAE79CEA55
:103E6000026F05D010EA5C0F08BF00F000407047F9
:103E700010B500F0D8F800BF64FBBE3E401058BF3C
:103E8000C0F14040491058BFC1F140418142EFF3B9
:103E90000080704750EA010C00F113801CF5000F00
:103EA00058BFBCF5000F01D48842704707D710F502
:103EB000000F58BF11F5000F15D488427047894292
:103EC00070471CF5000F04D5BCF5000FF7D58142F3
:103ED00070474FF0807C1CEB400F38BF1CEB410F4C
:103EE00001D28142704710B500F09DF8922449003C
:103EF0004FF000504FF08051FFF7C0BFB0FA80F391
:103F000010FA03F2C3F19D030AD0D90501EB122088
:103F1000530638BF704700F1010008BF20F00100D0
:103F2000704700004FF47F0C1CEAD0121EBF1CEA41
:103F3000D11392EA0C0F93EA0C0F00F0478090EA3D
:103F4000010F48BF42F480724FF0004C4CEA002051
:103F50004CEA012102EB0302A0FB0113A2F50002CF
:103F6000002918BF43F001035B0028BF4FEA330369
:103F700042EB22425FEA132C4CEBC2502EBFBCEB4B
:103F8000436FB2F57C0F70474FEA036CBCF1004FF2
:103F900008BF20F00100B2F57C0F38BF70470BD589
:103FA00082F0FF0212F5803FC8BF704700F1C040A9
:103FB000D8BF00F00040704700F5000C5FEA4C0CE1
:103FC00048BF7047B0F1C04000F073B890EA010FED
:103FD0000CEAD11348BF42F48072624538BF634592
:103FE00004D280EA010000F00040704710B500F0F4
:103FF0001AF800BF8900013E00F007B800F009B8C8
:104000005FEA410C5FEA1C6C08D080EA010000F016
:1040100050B85FEA400C5FEA1C6CF6D14FF00040EC
:10402000A0F5800070470EF1020E2EF0030E5EF830
:10403000044B244204D44FEA4102B2F17F4F11D81D
:104040004FEA4003B3F17F4F0CD80ED14FEAD07C3A
:10405000B2F17F4F0CEB4C0C0CF1020C08BF4CEB97
:10406000D17C04E04FF0080C01E04FEAD17C0CEB6E
:104070004C0324FA03F404F00704B4F1040C06D250
:104080000EEB840CBDE810404CF0010C6047DFE8FB
:104090000CF0070802024FF00040A0F5800010BDB0
:1040A0000846420018BFD2F1807288BF00F000407D
:1040B00010BDFF2141EAD050C005704790EA010FC2
:1040C00048BF81F000413FF57EAE421A04D882F02D
:1040D0000042A0EB020011444FEAD0524FF07F4C57
:1040E0001CEA410FA2EBD15318BF9CEA026F4AD0E1
:1040F0004FF0004C4CEA00204CEA012121FA03FC6D
:10410000B0EB0C0C0FD412F0FE0F36D05FEA4C006F
:104110001DD5001240EBC25038BF70471CF03F0F56
:1041200018BF70470BE0A2F101025FEA1C2040EBD0
:10413000C25038BF70471CF07F0F18BF7047C3F1E3
:104140002003994014BF401E20F0010070478008F2
:104150004FEA122308BF7047B0FA80FCA2EB0C02B2
:10416000CCF1280C60FA0CF093EA122F04BF00EB9C
:10417000C25070474FEAC3707047130A5FEADC1001
:1041800008BF7047F6E79CEA026F04D010EA5C0FA4
:1041900008BF0020704710B5FFF745FF40DFF63E2F
:1041A00081F000407047FCF724BB00000240000093
:1041B000000000A00000000005400000000000C852
:1041C000000000000C4000000000409C00000000C7
:1041D000194000000020BCBE000000003440000078
:1041E000BFC91B8E00000004B5400000504BCFD06B
:1041F0006607E2CF010000006C4100003E8251AA38
:10420000DFEEA73401000000D9420000DCB5A0E2D7
:104210003A301F97FFFFFFFFB4450000FD25A0C8FF
:10422000E9A3C14FFFFFFFFFFF3F00000000008038
:1042300000000000FF3F00000000008000000000C0
:104240007C420008000000209402000028010008C1
:104250000044000894020020F40B000084010008D0
:104260001C00000043000000F8FFFFFF0C000000EE
:104270000E0000000F0000002E0000001184A24A72
:1042800004C00901020304060708090220C827E048
:1042900010080810E0370F102020100F541010F8ED
:1042A0002620203F20201B70080122F01F302824E8
:1042B00022213008190F2388703718202121221C51
:1042C0002C804030311008060524243F242427F890
:1042D00088888808082F19202020110E60348888CB
:1042E000901B0F11111A1F38193F436818433E01E4
:1042F0001A702E29504B1C22501AF06029902E0162
:1043000012222211901163C0C01A307E114B08F89E
:1043100020299D39B0AC809898AF19112901211B33
:104320003324012A190F2AE00F311A1F315920298D
:104330000E29201A170E2911193F2B3F210529425A
:1043400049202A0EB04A114E1911291B290391390F
:104350008E99703F6B94949493603D39301951124B
:10436000202A01B039B5190F3E0101213F205C29F7
:1043700005198E5B2010704B88F8701910394C2984
:104380005227818E701806011B1CF0F1296C2D0F2D
:10439000102030C0E1195B19012AF0C01B01012F68
:1043A0001408F8F81AF8741B203FAC195F1AF01CB7
:1043B00033E0181F211C031E211E204B30C0901219
:1043C000202C07183F8B39B158080F300C030C30E4
:1043D0000FD03129A01B201F2B391219501624028F
:1043E0002D30202BC030701A383C29C019DC312DFB
:1043F0000102030404000900060708090204060874
:04000005080001ED01
:00000001FF
